{
  "contractName": "ErrorHandling",
  "abi": [
    {
      "inputs": [],
      "name": "j",
      "outputs": [
        {
          "internalType": "uint256",
          "name": "",
          "type": "uint256"
        }
      ],
      "stateMutability": "view",
      "type": "function",
      "constant": true
    },
    {
      "inputs": [],
      "name": "testing",
      "outputs": [],
      "stateMutability": "nonpayable",
      "type": "function"
    },
    {
      "inputs": [
        {
          "internalType": "uint256",
          "name": "i",
          "type": "uint256"
        }
      ],
      "name": "usingRevert",
      "outputs": [],
      "stateMutability": "pure",
      "type": "function",
      "constant": true
    }
  ],
  "bytecode": "0x608060405234801561001057600080fd5b5061041a806100206000396000f3fe608060405234801561001057600080fd5b50600436106100415760003560e01c80635a5c8ddb146100465780638d03b10214610062578063b582ec5f1461006c575b600080fd5b610060600480360381019061005b91906101bd565b61008a565b005b61006a6100d0565b005b61007461017c565b60405161008191906101f9565b60405180910390f35b600a81116100cd576040517f08c379a00000000000000000000000000000000000000000000000000000000081526004016100c490610271565b60405180910390fd5b50565b60008054146100e2576100e1610291565b5b60146000819055506014600054146100fd576100fc610291565b5b6000805414610141576040517f08c379a000000000000000000000000000000000000000000000000000000000815260040161013890610332565b60405180910390fd5b6040517f08c379a0000000000000000000000000000000000000000000000000000000008152600401610173906103c4565b60405180910390fd5b60005481565b600080fd5b6000819050919050565b61019a81610187565b81146101a557600080fd5b50565b6000813590506101b781610191565b92915050565b6000602082840312156101d3576101d2610182565b5b60006101e1848285016101a8565b91505092915050565b6101f381610187565b82525050565b600060208201905061020e60008301846101ea565b92915050565b600082825260208201905092915050565b7f496e707574206d7573742062652067726561746572207468616e203130000000600082015250565b600061025b601d83610214565b915061026682610225565b602082019050919050565b6000602082019050818103600083015261028a8161024e565b9050919050565b7f4e487b7100000000000000000000000000000000000000000000000000000000600052600160045260246000fd5b7f56616c7565206973206e6f206c6f6e67657220302e2053746174656d656e747360008201527f2061667465722074686973206172656e27742065786563757465640000000000602082015250565b600061031c603b83610214565b9150610327826102c0565b604082019050919050565b6000602082019050818103600083015261034b8161030f565b9050919050565b7f5468697320776f6e277420657865637574652062656361757365206f6620746860008201527f6520726571756972652073746174656d656e742061626f766500000000000000602082015250565b60006103ae603983610214565b91506103b982610352565b604082019050919050565b600060208201905081810360008301526103dd816103a1565b905091905056fea2646970667358221220a1bf1427cd41962c0d62daf641ce8e79ba269cb56634ec7125ab7ca2b58b67f164736f6c63430008120033",
  "immutableReferences": {},
  "source": "// SPDX-License-Identifier: UNLICENSED\r\n// compiler version must be greater than or equal to 0.8.17 and less than 0.9.0\r\npragma solidity ^0.8.17;\r\n\r\n// let instance = await ErrorHandling.deployed()\r\n// instance.testing()\r\n// instance.usingRevert(12)\r\n// instance.usingRevert(5)\r\ncontract ErrorHandling {\r\n    uint public j;\r\n\r\n    function testing() public {\r\n        assert(j == 0);//0 is default value of uint. We check if its set to that\r\n        j=20;\r\n        assert(j == 20);//This will work and not stop execution\r\n        require(j == 0,\"Value is no longer 0. Statements after this aren't executed\");\r\n\r\n        revert(\"This won't execute because of the require statement above\");\r\n    }\r\n    \r\n    function usingRevert(uint i) public pure {\r\n        if (i <= 10) {\r\n            revert(\"Input must be greater than 10\");\r\n        }\r\n        \r\n    }\r\n\r\n}",
  "sourcePath": "C:\\Users\\Chi\\Desktop\\ETHPROOF Intermediate Varun\\contracts\\ErrorHandling.sol",
  "compiler": {
    "name": "solc",
    "version": "0.8.18+commit.87f61d96.Emscripten.clang"
  },
  "schemaVersion": "3.4.11",
  "updatedAt": "2023-02-24T14:16:29.961Z",
  "networkType": "ethereum",
  "devdoc": {
    "kind": "dev",
    "methods": {},
    "version": 1
  },
  "userdoc": {
    "kind": "user",
    "methods": {},
    "version": 1
  }
}